:020000040800F2
:10000000A069002045010008B742000899340008A3
:10001000B542000863060008E54A00080000000039
:1000200000000000000000000000000091430008F4
:10003000B506000800000000D942000893430008FC
:100040005F0100085F0100085F0100085F01000810
:100050005F0100085F010008AD0A0008E90A000816
:10006000EF0A0008F50A0008FB0A00085F01000813
:100070005F0100085F0100085F0100085F010008E0
:100080005F0100085F0100085F010008CD4A000819
:10009000D94A00085F0100085F010008010B000851
:1000A0002D44000845440008394400085F01000859
:1000B0005F0100085F0100085F0100089D3400082F
:1000C0005F0100085F0100085F0100085F01000890
:1000D0005F010008A94A0008B54A0008C14A0008A3
:1000E000B30A00085F0100085F01000875440008BA
:1000F000AD440008914400085F0100085F0100085A
:100100005F0100085F010008514400085F0100081A
:1001100099470008A54700085D44000869440008A5
:100120005F0100085F0100085F0100085F0100082F
:10013000DFF80CD000F074FA00480047C9500008FE
:10014000A06900200648804706480047FEE7FEE712
:10015000FEE7FEE7FEE7FEE7FEE7FEE7FEE7FEE777
:10016000E543000831010008202A04DB203A21FA87
:1001700002F00021704721FA02F3D040C2F12002C0
:100180009140084319467047D2B201E000F8012BB4
:10019000491EFBD270470022F6E710B513460A4607
:1001A00004461946FFF7F0FF204610BDF0B480EA80
:1001B0000102D40F4200B2EB410F02D202460846C0
:1001C00011464A0042D0C30DDDB2C1F3C752AD1A89
:1001D000202D35DAC1F3160141F4000204B1524278
:1001E000C5F1200602FA06F12A411044B3EBD05FB4
:1001F00023D0C4B1012DA0EBC35009DCF0BC4FF0FB
:10020000004202EAC352DBB200F5000000F07DB903
:10021000400000F1807000EBC350A0F1807040EA14
:10022000D170490009E0490841EAC071A0EBC35010
:1002300000F50000400800EBC350F0BC00F05CB9D2
:100240006142012202EB4101001BF6E7F0BC70475E
:1002500081F00041AAE780F00040A7E780EA0102B0
:1002600010B502F00043400022D04A001FD0010E1A
:1002700001EB1261C0F35600C2F3560240F40000D5
:1002800042F40002A0FB022000047F39140400D0D5
:10029000401C50EA124001D44000491EC2B20C0674
:1002A00004EBD010401C4008802A02D003E000205C
:1002B00010BD20F00100002900DA0020184310BD15
:1002C00030B480EA010202F0004530F0004221F033
:1002D000004013D090B1C30DD40DC2F31601C0F38A
:1002E0001600E41A41F4000140F400027D3491420A
:1002F00001D3641C00E04900002C02DA30BC00206D
:1003000070474FF400000023914201D3891A034340
:1003100040084FEA4101F7D151B1914202D14FF06B
:10032000004105E002D24FF0010101E06FF0010150
:1003300003EBC450284430BC00F0DEB8420005D0C6
:10034000C0F3C7525242914201DC0020704700EBDB
:10035000C15070472DE9FE4F81EA030404F00044C8
:1003600021F0004100944FF0000B23F0004350EACD
:1003700001045ED052EA03045BD0C3F30A54C1F314
:100380000A552C44A4F2F3340194A0FB0254C1F3A7
:10039000130141F48011C3F3130343F4801301FBF1
:1003A000024400FB034E840A970A44EA815447EA58
:1003B0008357A4FB076802958D0A05FB07854FEA62
:1003C000932C04FB0C542705029D4FEA065847EA7C
:1003D0001637B5EB08056EEB070C870E920E47EA51
:1003E000811742EA8312A7FB0201B6EB0B0164EB13
:1003F00000042B0D43EA0C335E1844EB1C50DA4624
:100400005146E7FB0201C5F313044FEA0B3343EAFD
:1004100014534FEA0432019C43EA0603A4F10C048E
:100420000294009CCDE900B400F0ACF803B0BDE844
:10043000F08F00200146F9E796230022114600F0D4
:1004400064B820F00040C10DC0F3160040F4000075
:100450007F2901DA00207047962903DCC1F196015B
:10046000C840704796398840704770B5C1F30A524A
:1004700001F000450024C1F3130140F2FF3341F4C1
:1004800080119A4201DA002070BD40F233439A4253
:10049000A2F2334203DC5242FFF766FE00E09040D6
:1004A0002C43F1D0404270BD00F0004230F00040DB
:1004B0000AD0C10D01F56071C0F3160042EA015186
:1004C000C2084007114370470020014670470000F2
:1004D000002801DBC0F10040002901DBC1F100412F
:1004E00081427047002801DBC0F10040002901DB98
:1004F000C1F10041884270470029A8BF7047401CE5
:10050000490008BF20F00100704710B4B0FA80FC29
:1005100000FA0CF050EA010404BF10BC704749B166
:10052000CCF1200421FA04F411FA0CF118BF0121D6
:1005300021430843A3EB0C01CB1D4FEA00614FEAB6
:10054000102042BF002010BC704700EBC350104485
:100550000029A4BF10BC7047401C490008BF20F010
:10056000010010BC704710B5141E73F1000408DAC6
:10057000401C41F1000192185B411A4301D120F067
:10058000010010BD2DE9F04D92469B4611B1B1FA24
:1005900081F202E0B0FA80F22032904600F052F888
:1005A00004460F4640EA0A0041EA0B0153465A4608
:1005B000084313D0114653EA010019D0C8F1400294
:1005C0005046FFF7D1FD05460E4650465946424675
:1005D00000F038F8084305D0012004E020463946F1
:1005E000BDE8F08D0020054346EAE0762C43374312
:1005F0000A986305E40AA0EB08000022FD0A44EA19
:1006000047540A3002D500200146E9E701051019D8
:100610006941DDE9084500196941BDE8F04DA2E7EF
:10062000064C074D06E0E06840F0010394E807003F
:1006300098471034AC42F6D3FFF77EFD4492000891
:1006400064920008202A04DB203A00FA02F100201C
:1006500070479140C2F1200320FA03F31943904000
:100660007047FEE70B480C49806888420ED00B4962
:1006700088420BD00A49884208D00A49884205D0EE
:100680000949884202D00949884202D108496320B9
:10069000887770470C000020B805010030EC01009D
:1006A000A8D2020020B90300989F0400108605001C
:1006B00028120020704700F0EBBE000008B50123AF
:1006C0001A466946034801F009FE0028F7D19DF853
:1006D000000008BDA401002001B501231A466946A7
:1006E000024801F09FFE0028F7D108BDA4010020B8
:1006F00008B5010A8DF800108DF8010001230222CF
:100700006946034801F08EFE0028F7D108BD0000BD
:10071000A40100202DE9F0470C461546814626210C
:1007200000F077F8061E5BD040F2B450864200D944
:100730000646AE4200D32E462821484600F069F80E
:10074000C0F30A07002000F05FF93846FFF7D0FF3A
:10075000182101EB491808F0FF00FFF7BDFFB81999
:10076000B0F5006F0AD2002505E0FFF7A7FF6D1C6A
:1007700004F8010BADB2B542F7D321E0C7F500672D
:10078000002505E0FFF79AFF6D1C04F8010BADB2E0
:10079000BD42F7D3012000F037F9002000F034F912
:1007A0000020FFF7A5FF08F0FF00FFF795FF05E029
:1007B000FFF784FF6D1C04F8010BADB2B542F7D30F
:1007C000012000F021F9B819C0F30A022821484697
:1007D00000F0E0F840220121484600F0C3F830461E
:1007E000BDE8F08770B504460D46002000F00CF916
:1007F0002846FFF77DFF092000EB4410C0B2FFF749
:100800006BFFFFF75BFF0446012000F0FDF8204678
:1008100070BD70B504460D46002000F0F5F828467E
:10082000FFF766FF0A2000EB4410C0B2FFF754FF49
:10083000FFF744FF0502FFF741FF40EA05040120EE
:1008400000F0E2F8204670BD10B50B4CC0EB001074
:1008500020440C0A447581751178C1755178017670
:1008600091784176D1788176190AC1760377012192
:1008700080F8231010BD0000101900202DE9F0476A
:100880000C46164682460021FFF7ACFF344A0C2185
:10089000504600F097F832481D3890F8221090F832
:1008A000210001EB002082B21021504600F072F8C6
:1008B00024215046FFF7ADFF8046C0F30A05002013
:1008C00000F0A2F82846FFF713FF142101EB4A19A4
:1008D00009F0FF00FFF700FFA819B0F5006F0AD27A
:1008E000002505E014F8010BFFF7F6FE6D1CADB214
:1008F000B542F7D321E0C5F50067002505E014F8FF
:10090000010BFFF7E9FE6D1CADB2BD42F7D301202C
:1009100000F07AF8002000F077F80020FFF7E8FEFA
:1009200009F0FF00FFF7D8FE05E014F8010BFFF710
:10093000D3FE6D1CADB2B542F7D3012000F064F8D0
:1009400008EB060082B22421504600F023F8202252
:100950000121504600F006F83046BDE8F08700005F
:100960002D19002070B5044615460E46002000F0F3
:100970004BF83046FFF7BCFE0D2000EB4410C0B230
:10098000FFF7AAFE2846FFF7A7FEBDE8704001204A
:1009900000F03AB870B5044615460E46002000F047
:1009A00033F83046FFF7A4FE0E2000EB4410C0B22F
:1009B000FFF792FE2846FFF79BFEBDE8704001203E
:1009C00000F022B870B5054614460E46002000F02F
:1009D0001BF83046FFF78CFE0F2000EB4510C0B22D
:1009E000FFF77AFE2078FFF777FE6078FFF774FE56
:1009F000A078FFF771FEE078FFF76EFEBDE870406B
:100A0000012000F001B80000064B4FF4805128B1DE
:100A1000012805D10122184600F035BD0022FAE771
:100A200070470000000C0140054B30B1012806D191
:100A300001220221184600F026BD0022F9E7704786
:100A4000000C0140154914480A78C2704A780271B6
:100A50008A784271C978817111490A78C2714A78DD
:100A600002728A784272C97881720E490A78C2721B
:100A70004A7802738A784273CA7882730A79C27399
:100A80004979017408490A7842744A7882748A78EC
:100A9000C274C978017570471019002010920008BF
:100AA00014920008189200081E920008012000F01D
:100AB000E3BB10B54FF4806000F0DEFB4FF4006044
:100AC00000F0DAFB4FF4805000F0D6FB4FF40050FA
:100AD00000F0D2FB4FF4804000F0CEFBBDE81040A8
:100AE0004FF4004000F0C8BB022000F0C5BB04205A
:100AF00000F0C2BB082000F0BFBB102000F0BCBB60
:100B000010B5202000F0B8FB402000F0B5FB80209D
:100B100000F0B2FB4FF4807000F0AEFBBDE8104077
:100B20004FF4007000F0A8BB704730B590F820403B
:100B3000012C05D0022C03D0416A41F480215DE0F4
:100B40000468002955D02469A40754D04FF4D87400
:100B5000056804EB01142D5915F00405956005682E
:100B60002D594ED0ED08556005682C59C4F340044A
:100B7000D4604FF4DA74056804EB01142D5905F0C4
:100B80000F05156105682D59C5F3072595610568A1
:100B90002C59240C54614FF4DC72046802EB0112EE
:100BA000A4581C700468A458240A5C700468A458F3
:100BB000240C9C700468A258120EDA704FF4DE7296
:100BC000046802EB0112A4581C710468A458240A9A
:100BD0005C710468A458240C9C710468A258120E1D
:100BE000DA71006881B1016941F0200101610020E2
:100BF00030BDE468A8E7416A41F400114162012078
:100C000030BD6D0D1560AFE7C16841F02001C160D6
:100C1000EDE72DE9F05F0546006800244669D0F84D
:100C200004908768D0F80CB0D0F810A0D0F81880E5
:100C3000F10748D0F90714D001218160B80703D526
:100C4000284600F0D3F90CE0780702D54FF4006491
:100C500007E0380702D54FF4805402E0284600F040
:100C6000C4F9F80516D529684FF480708860B80576
:100C700003D5284600F0BCF90CE0780502D544F411
:100C8000005407E0380502D544F4804402E02846C9
:100C900000F0ADF9F80316D529684FF4803088606C
:100CA000B80303D5284600F0A5F90CE0780302D577
:100CB00044F4004407E0380302D544F4803402E0F1
:100CC000284600F096F9300707D55FEACB6004D5D7
:100CD0002968102044F40074C86070074FF00807BA
:100CE00007D55FEA0B7004D52868C760284600F076
:100CF0006DF9B00706D52868C068800702D028467D
:100D000000F065F9700607D55FEACA6004D5296866
:100D1000102044F480640861B00607D55FEA0A70C9
:100D200004D528680761284600F052F9F00606D578
:100D300028680069800702D0284600F04BF9B0030C
:100D400008D55FEAC96005D52968102048602846A3
:100D500000F04AF9F00307D55FEA097004D5286866
:100D60004760284600F047F9300446D55FEA4970ED
:100D700040D5F00504D55FEAC87001D044F0010405
:100D8000B00504D55FEA887001D544F0020470050F
:100D900004D55FEA487001D544F00404300529D534
:100DA00018F0700F26D008F07000402815D006DC2F
:100DB000102809D020280AD0302816D10AE050285F
:100DC0000ED0602811D10EE044F008040DE044F08C
:100DD00010040AE044F0200407E044F0400404E07A
:100DE00044F0800401E044F480742868816921F0B3
:100DF00070018161296804204860002C05D0686A70
:100E0000204368622846FFF78FFEBDE8F09F70B56B
:100E1000040003D094F8200010B104E0012070BD5C
:100E2000204600F081F82068016821F0020101608D
:100E300000F02EFB0546052604E000F029FB401BD0
:100E40000A2811D8206840688007F6D42068016815
:100E500041F00101016000F01BFB05460BE000F0D2
:100E600017FB401B0A2806D9606A40F40030606214
:100E700084F82060D2E720684068C007EFD0207E69
:100E80000128206801683DD021F080010160607E6A
:100E900001282068016838D021F040010160A07E5F
:100EA00001282068016833D021F020010160E07E34
:100EB0000128206801682ED041F010010160207FD8
:100EC00001282068016829D021F008010160607FB5
:100ED00001282068016824D021F004010160D4E9D0
:100EE00002010843D4E90412114308436168491E12
:100EF00008432168C86100206062012084F8200056
:100F0000002070BD41F08001C0E741F04001C5E71D
:100F100041F02001CAE721F01001CFE741F00801BC
:100F2000D4E741F00401D9E710B586B00021009163
:100F30000191029103910068204988423BD12048E9
:100F4000C16941F00071C161C16901F00071049192
:100F5000816941F00801816180691A4C00F0080044
:100F600004904FF4807000906946204600F090F99C
:100F700061150091022101910321039169462046E8
:100F800000F086F91049486820F4C04040F0E06065
:100F900040F48040486000221146132000F06AFEB1
:100FA000132000F05BFE00221146142000F062FEC8
:100FB000142000F053FE06B010BD00000064004095
:100FC00000100240000C01400000014070477047D3
:100FD00070470000034A0168914201D106F0B2B89F
:100FE00070470000006400407047704770477047CA
:100FF00070477047704770472DE9F05F90F82110F7
:101000000024022903D004218163012485E00168C2
:101010000A6822F00E020A6001680A6822F00102E2
:101020000A603F4E3E4FB215DFF8F4C0DFF8F09093
:10103000DFF8ECA0DFF8E8B0DFF8E4E00168783F23
:1010400013011502ACF1640CA9F15009AAF13C0A94
:10105000ABF1280BAEF1140E4FF48018B14227D932
:10106000B9420ED0614512D049451DD0514518D026
:10107000594518D0714501D1424615E0294EB1427B
:1010800001D1012210E0274E1436B14201D11022C5
:101090000AE0244E2836B14206D0224A3C32914220
:1010A00001D11A4600E02A461E49091F0A602BE0BA
:1010B000B94213D0614517D0494522D051451DD0C2
:1010C00059451DD0714501D142461AE0B14202D1C5
:1010D0004FF0807215E0134EB14201D1012210E0B1
:1010E000104E1436B14201D110220AE00D4E2836BE
:1010F000B14206D00B4A3C32914201D11A4600E07F
:101100002A46074980394A60012180F821100021D0
:1011100080F82010416B01B188472046BDE8F09F60
:10112000800002400804024010B5504B012830D026
:10113000022835D04E4A042839D008283ED010283D
:1011400043D0202848D040284DD0802852D0B0F538
:10115000807F56D0B0F5007F5AD0B0F5806F5ED05A
:10116000B0F5006F62D0B0F5805F66D0B0F5005F7B
:101170006AD0B0F5804F70D0B0F5004F74D1014601
:10118000104600F07BF901460F20BDE8104006F044
:101190004FBD0146184600F071F901460020F4E702
:1011A0000146184600F06AF901460120EDE70146C4
:1011B000104600F063F901460220E6E701461846B2
:1011C00000F05CF901460320DFE70146184600F015
:1011D00055F901460420D8E70146184600F04EF9BB
:1011E00001460520D1E70146184600F047F90146BF
:1011F0000620CAE70146184600F040F901460720DC
:10120000C3E701461B4800F039F901460820BCE756
:101210000146104600F032F901460920B5E70146C3
:10122000104600F02BF901460A20AEE701461046B1
:1012300000F024F901460B20A7E70146104600F014
:101240001DF901460C20A0E70146104600F016F9F2
:1012500001460D2099E700E006E00146104600F047
:101260000DF901460E2090E710BD0000001401406A
:101270000020014000080140044910B50A680242FC
:1012800002D00860FFF750FF10BD000014040140B9
:101290002DE9F84FDFF8BC91002309F1040A0AF1A7
:1012A000040B1C464FF00F080BF1040E01270A68CF
:1012B000A7403A40BA4272D1DFF89CC14D68A5EB15
:1012C0000C0665452BD00DDC032D34D005DC35B381
:1012D000012D19D0022D2FD11BE0112D16D0122D6A
:1012E0002AD119E0B6F5881F19D006DCB6F5803F83
:1012F00015D0B6F5801F1FD111E0B6F5001F0ED036
:10130000B6F5041F18D10AE0CB6815E0CB681B1DA9
:1013100012E0CB6808330FE0CB680C330CE08B682D
:101320002BB1012B4FF0080303D0476104E00423E5
:1013300002E0076100E00023FF2A01D8064601E031
:1013400000F104064FEA840501D9A5F120053768AC
:1013500008FA05FC27EA0C0703FA05F547EA050732
:1013600037604D68ED006ED53C4DAE6946F0010624
:10137000AE61AD6924F0030605F001050095384D16
:101380007719BE68A5072D0F08FA05FC26EA0C069A
:10139000DFF8D0C0604503D14FF0000C25E052E0EB
:1013A000DFF8C4C0604502D14FF0010C1DE0DFF84A
:1013B000BCC0604502D14FF0020C16E0DFF8B0C0AF
:1013C000604502D14FF0030C0FE0DFF8A8C0604584
:1013D00002D14FF0040C08E0DFF89CC0604502D158
:1013E0004FF0050C01E04FF0060C0CFA05FC4CEA3E
:1013F000060CC7F808C04D68D9F80060ED034D46EB
:1014000001D5164300E096432E604D68DAF800607F
:10141000AD03554601D5164300E096432E604D6856
:10142000DBF80060ED025D4601D5164300E096430F
:101430002E604D68DEF80060AD02754601D516439A
:1014400000E096432E60641C102CFFF42FAFBDE823
:10145000F88F00000004014000001110001002404D
:101460000000014000080140000C01400010014054
:101470000014014000180140001C01408068084031
:1014800000D0012070470AB1016170470904FBE7F1
:1014900001488068704700001801002070477047BD
:1014A0002DE9F05F02680646D2F818805469556845
:1014B00090F83E007449DFF8D0A1DFF8CCB1DFF836
:1014C000CC918F1C0AF17E0A0BF13E0B102812D032
:1014D000402810D00C425BD0A80559D593693046FE
:1014E0000021DB435B0700D501219269D24312063C
:1014F00048D5828947E014F0011F05D0A80503D51F
:10150000304602F0AAFA10E05F48801D044205D080
:10151000A80503D5706CC0B2106106E00C4204D07F
:10152000A80502D5304602F00BFA18EA090F14D0CC
:1015300014EA0A0F08D0680506D53C4206D13046A9
:10154000BDE8F05F02F079B93C421FD0A8051DD577
:101550003046BDE8F05F02F030B914EA0B0F08D056
:10156000680506D53C4206D13046BDE8F05F02F082
:10157000CDB83C420AD0A80508D53046BDE8F05F9A
:1015800002F060B8028B92B2FFF789FFBDE8F09FCE
:101590003D480E30044206D0A80504D53046BDE8CB
:1015A000F05F02F04FBB18EA090F4FF0280334D068
:1015B00014EA0A0F23D0680521D53C4221D196F8C0
:1015C0003D203046718D0029E0D0416A4C1C4462B8
:1015D000046809782161418D491E4185418D0029AA
:1015E000D4D1292AD2D101684A6822F480624A60A3
:1015F0002121016380F83D3000F0D5FAC6E73C4276
:10160000C4D0A805C2D5708D0028BFD0706A411C17
:10161000716231680078086131E014EA0B0F22D062
:10162000680520D53C4220D196F83D403046718D6A
:101630000029ABD01269416A4D1C45620A70418D88
:10164000491E4185418D0029A0D12A2C9ED10168D7
:101650004A6822F480624A602221016380F83D30AA
:1016600000F0A0FA92E73C4290D0A8058ED5708D8C
:1016700000288BD01169706A421C72620170708DF3
:10168000401E708582E70000020001000400100087
:101690007047000070B504001BD094F83D00002591
:1016A00020B984F83C50204600F046FA242084F803
:1016B0003D002068016821F00101016000F0C0FBDD
:1016C000404A6168914201D83F4900E03F49884261
:1016D00001D2012070BD3E492368B0FBF1F1596091
:1016E0006368934206D94FF4967359434FF47A7363
:1016F000B1FBF3F12368491C19626168914210D86B
:101700004900401EB0FBF1F2521CC2F30B02042A46
:1017100001D2042022E0B0FBF1F0401CC0F30B002A
:101720001CE0A268CAB301EBC10303EB0116431E20
:10173000B3FBF6F35B1C43F480431B0536D06AB35E
:1017400001EBC10202EB0111401EB0FBF1F0401CA5
:10175000C0F30B0040F4804040F400402168C861B1
:10176000D4E90701084321680860D4E9031008435D
:1017700021688860D4E9050108432168C8602068B1
:10178000016841F0010101602564202084F83D00DA
:10179000256384F83E50002070BD00E008E001EBB6
:1017A0004106431EB3FBF6F35B1CC6E70120D5E7F9
:1017B00001EB4101401EB0FBF1F0401CC0F30B00F7
:1017C000CAE70000A086010080841E0000093D00D9
:1017D00040420F00704770477047704770470000E5
:1017E0002DE9FF4F83B09A46DDE911789346044610
:1017F000DDF84090FFF74CFE054694F83D002028A8
:1018000070D1192301227A492046009502F0AFFADF
:101810000028F5D194F83C00012863D0012084F819
:101820003C0020680168C90703D1016841F001014B
:1018300001602068016821F400610160222084F8C1
:101840003D00402084F83E0000262664C4F8249021
:1018500067856848E062608D2085CDE90085534644
:101860005A462046049902F025F928B1206C84F8E4
:101870003C60042850D074E0208D5F4F68B101288F
:1018800014D00228206801681ED041F480610160F4
:1018900020684169806900909BE020684169816906
:1018A0000091016841F40071016092E020680168D4
:1018B00021F48061016072B62068416981690091FC
:1018C000016841F400710AE041F40061016072B600
:1018D0002068416981690091016821F4806101609B
:1018E00062B676E081E0032850D801280BD00228A8
:1018F00043464FF0000239462046009512D002F0D0
:1019000036FA70BB13E02A464146204602F0A2FA9E
:1019100030B1206C202824D0012007B0BDE8F08F22
:1019200020684BE002F023FAD8B972B61BE02068B9
:10193000016821F48061016072B620680169606A03
:10194000421C62620170208D401E2085608D401E09
:1019500060854346002239462046009502F007FA8A
:1019600008B10320D9E72068016841F400710160E3
:1019700020680169606A421C62620170208D401E0D
:101980002085608D401E608562B6C9E72A464146C3
:10199000204602F05FFA0028BBD120680169606A26
:1019A000421C62620170208D401E2085608D401EA9
:1019B000608520684169C94349070AD40169606AA2
:1019C000421C62620170208D401E2085608D401E89
:1019D0006085208D002886D1202084F83D0084F881
:1019E0003E6084F83C60002097E7022095E7000005
:1019F000020010000000FFFF040001002DE9FF4F6E
:101A000083B09A46DDE9118793460446DDF840909D
:101A1000FFF73EFD054694F83D0020287DD11923AF
:101A2000012243492046009502F0A1F900287CD10B
:101A300094F83C00012878D0012084F83C0020680C
:101A40000168C90703D1016841F001010160206804
:101A5000016821F400610160212084F83D004020EC
:101A600084F83E0000262664C4F82490A4F82A8056
:101A70003048E062608D2085CDE9007553465A46B6
:101A80002046049902F08EF880B3206C84F83C6004
:101A9000042848D008E02A463946204602F00CFACD
:101AA00030B1206C042839D0032007B0BDE8F08F96
:101AB000606A411C6162216800780861208D401EC7
:101AC00080B22085618D491E618521684A69D243B3
:101AD00052070BD468B1606A421C626200780861E8
:101AE000208D401E2085608D401E6085208D002841
:101AF000D1D12A463946204602F012F90028D0D129
:101B000054F83D0B016841F400710160202004F895
:101B10001E09E67766770020C7E706E020680168BF
:101B200041F4007101600120BFE70220BDE7000021
:101B3000020010000000FFFF10B586B000210091E8
:101B400001910291039100681349884222D1134CFC
:101B5000A06940F00800A061A069694600F0080093
:101B60000490C020009012200190032003900C48A4
:101B7000FFF78EFBE06940F40010E061E0690022AD
:101B800000F40010049011461F2000F073F81F208D
:101B900000F064F806B010BD005400400010024090
:101BA000000C014070477047024881680278114478
:101BB0008160704718010020074810B5016841F0A6
:101BC00010010160032000F075F8002000F006F815
:101BD00000F024F8002010BD0020024070B50D4D2B
:101BE00004464FF47A712878B1FBF0F00A4909688D
:101BF000B1FBF0F000F0ADFD48B9102C07D2002287
:101C00002146501E00F036F800206C6070BD0120A7
:101C100070BD000018010020240100200D4808B507
:101C2000816941F001018161816901F00101009147
:101C3000C16941F08051C161C06900F080500090DD
:101C4000052000F037F80449486820F0E06048605B
:101C500008BD0000001002400000014000F01F021B
:101C6000012191404009800000F1E020C0F80011FE
:101C700070470000F0B40E4B1B68C3F30223C3F19E
:101C80000704042C00D904241D1D072D01D20023B4
:101C900000E0DB1E012606FA04F56D1E0D409D4096
:101CA0009E40761E164045EA0601F0BC02F004BBD9
:101CB0000CED00E0064A00F0070110684FF6FF0344
:101CC000184040EA012003490843106070470000B3
:101CD0000CED00E00000FA052DE9F047DFF8508137
:101CE00004460E46D8F8000000F00700B0420CD2BF
:101CF000D8F8001021F007013143C8F80010D8F8D7
:101D0000000000F00700B0426DD12068494F810704
:101D100012D5400703D5786840F4E06078602078F9
:101D2000000703D5786840F4605078607868A1684F
:101D300020F0F000084378602078C00742D0606847
:101D4000012816D03968022816D0890700294ADAF6
:101D5000796821F0030101437960FFF799FB05469B
:101D6000606841F2883101280ED00228894617D0D8
:101D700024E039688903E9E78901E7E7FFF788FB91
:101D8000411B494501D916E089467868C0F38100B6
:101D90000128F3D116E0FFF77BFB411B49450AD828
:101DA0007868C0F381000228F5D10BE0FFF770FBE3
:101DB000411B494502D90320BDE8F087786810F03F
:101DC0000C0FF3D1D8F80010404601F00701B142E2
:101DD0000BD9016821F0070131430160006800F070
:101DE0000700B04201D00120E6E72078400705D582
:101DF0007868E16820F4E0600843786020780007A4
:101E000006D57868216920F4605040EAC100786006
:101E100000F036F87968084AC1F30311515CC840F4
:101E2000064908600020FFF7D9FE0020C4E7000043
:101E300000200240001002402A92000824010020E5
:101E40000448054900684968044AC1F30221515C0D
:101E5000C840704724010020001002403A92000858
:101E60000448054900684968044AC1F3C221515C2D
:101E7000C840704724010020001002403A92000838
:101E800012A085B00FC88DE80F0014A0144B006895
:101E900004905968134801F00C02042A10D0082A53
:101EA0000ED1C1F38342C9031DF802000AD5596857
:101EB00004AAC1F34041515C0A4A5043B0FBF1F01F
:101EC00005B0704708494843FAE7000002030405DB
:101ED000060708090A0B0C0D0E0F10100102000076
:101EE0000010024000127A0000093D002DE9F84F71
:101EF00004460078B64DC00747D06868C0F381003B
:101F0000012807D06868C0F38100022809D16868F9
:101F1000C00306D52868800337D5606800286ED0D6
:101F200033E06068B0F5803F0BD010B1B0F5A02F62
:101F300011D0286820F480302860286820F48020A0
:101F400002E0286840F480302860606888B1FFF7BC
:101F50009FFA064609E0286840F480202860F0E7F0
:101F6000FFF796FA801B642873D828688003F7D59A
:101F70000BE0FFF78DFA064604E0FFF789FA801BB5
:101F80006428F1D828688003F7D42078DFF84482E9
:101F900080074FF0010A4FF0000939D5686810F04A
:101FA0000C0F07D06868C0F38100022809D1686867
:101FB000C00306D42868800713D5206901281ED1E4
:101FC0000FE02069A8B1C8F800A0FFF761FA064643
:101FD00004E0FFF75DFA801B0228C5D82868800757
:101FE000F7D52868616920F0F80040EAC100286050
:101FF0000EE0C8F80090FFF74BFA064605E0E5E072
:10200000FFF746FA801B022823D828688007F7D4F8
:10201000207800072CD57049A069D8B1C1F800A07C
:10202000FFF736FA064604E0FFF732FA801B022873
:102030000FD8686A8007F7D568484FF4FA510068EE
:10204000B0FBF1F0009000BF0098411E0091FAD261
:102050000EE07CE0C1F80090FFF71AFA064604E0B3
:10206000FFF716FA801B022871D8686A8007F7D438
:10207000207840075BD5E8690027C00008D4E869EC
:1020800040F08050E861E869012700F0805000903E
:1020900053480168C90511D40168834641F4807131
:1020A0000160FFF7F5F9064604E0FFF7F1F9801B40
:1020B00064284CD8DBF80000C005F6D5E06801289C
:1020C0000AD008B1052813D0286A20F00100286240
:1020D000286A20F0040002E0286A40F0010028622B
:1020E000E06841F2883B88B1FFF7D2F9064609E083
:1020F000286A40F004002862EEE7FFF7C9F9811B67
:1021000059455BD8286A8007F7D50BE0FFF7C0F97F
:10211000064604E0FFF7BCF9811B59454ED8286AF2
:102120008007F7D41FB1E86920F08050E861E069CA
:10213000A8B36968C1F38101022947D00228484643
:1021400006D0C8F86000FFF7A3F9044639E035E08F
:102150004746C8F86000FFF79BF9064604E0FFF722
:1021600097F9801B022829D828688001F7D4206AB3
:10217000B0F5803F05D16868A16820F400300843BD
:102180006860D4E908010843696821F474110843C0
:102190006860C7F860A0FFF77BF9044605E013E02C
:1021A000FFF776F9001B022808D828688001F7D5C8
:1021B0000AE0FFF76DF9001B022802D90320BDE8F1
:1021C000F88F28688001F4D40020F8E70120F6E7B2
:1021D00000100240000042428004424224010020DC
:1021E0000070004070B5040005D00025A56294F889
:1021F000510010B104E0012070BD204600F034F819
:10220000022084F851002068016821F0400101603B
:10221000D4E901010843D4E9031211430843616979
:102220000843218B01F400710843E1690843216AE6
:102230000843A16A084321680860A069042101EAF3
:102240001040616A0843216848602168E06A0861BB
:102250002068C16921F40061C1616565012084F8CD
:102260005100002070BD000030B585B000240094FE
:1022700001940294039400681549884225D11548B9
:10228000C16941F48041C161C16901F48041049197
:10229000816941F00801816180690F4D00F00800FB
:1022A00004904FF4204000900220019003200390FE
:1022B00069462846FEF7ECFF4FF48040CDE9000464
:1022C000694628460294FEF7E3FF05B030BD0000E2
:1022D0000038004000100240000C01402DE9F84F8A
:1022E0000446406800271E4691460D464FF0040AFA
:1022F000B0F5827F01D1A06888B194F85000012820
:1023000017D0012084F85000FFF7C2F8804694F8F7
:1023100051004FF0000B01280DD002277BE084F81C
:1023200051A0009313460A46204600F02DF9BDE85F
:10233000F88F0220FBE7002D6CD0B9F1000F69D0B7
:1023400084F851A0C4F854B0A563A4F83C90A4F854
:102350003E90C4F830B0A4F834B0A4F836B0C4F855
:1023600040B0C4F844B0A0684FF40049484504D1D7
:102370002068016821F480410160206801684906F5
:1023800003D4016841F040010160E068A0B12DE094
:1023900020688168C90706D0007B05F8010BE08F33
:1023A000401EE08708E0FEB1701C05D0FFF770F812
:1023B000A0EB0800B04217D2E08F0028E8D118E067
:1023C00020688168C90706D0C06825F8020BE08F35
:1023D000401EE0870AE03EB1701C07D0FFF758F8B6
:1023E000A0EB0800B04201D3032714E0E08F0028DF
:1023F000E6D16068B0F5827F0AD1A068484502D076
:10240000B0F5806F04D12068016821F040010160BF
:10241000606D00B10127012084F8510084F850B0AC
:10242000384684E72DE9F84F044690F8500000271D
:102430001E4691460D4601280DD04FF0010B84F841
:1024400050B0FFF725F8804694F85100BA460128AD
:1024500004D0022792E00220BDE8F88F002D79D049
:10246000B9F1000F76D0032084F85100C4F854A0CD
:102470002563A4F83490A4F83690C4F838A0A4F8E2
:102480003CA0A4F83EA0C4F844A0C4F840A0A068B2
:10249000B0F5004F04D12068016841F4804101602B
:1024A00020680168490603D4016841F040010160D9
:1024B000E068B0F5006F606804D020B3E08E0128BA
:1024C00021D039E010B1E08E012818D1216835F80B
:1024D000020BC86006E020688168890706D535F8D8
:1024E000021BC160E08E401EE08608E086B3701CCF
:1024F00005D0FEF7CDFFA0EB0800B04228D2E08E59
:102500000028E8D11BE0216815F8010B087306E0EC
:1025100020688168890706D515F8011B0173E08ED4
:10252000401EE08608E09EB1701C05D0FEF7B0FFAB
:10253000A0EB0800B0420BD2E08E0028E8D1334671
:10254000012202212046CDF8008001F0D6FE10B114
:10255000032713E011E042463146204601F0BDFE5C
:1025600018B101272020606508E0A06818B920682C
:10257000C16880680090606D00B1012784F851B097
:1025800084F850A0384667E72DE9F84F044690F8E4
:1025900050000127DDF828809B4616460D464FF077
:1025A000000901280ED0012084F85000FEF770FFCA
:1025B000824694F85100616801280CD0B1F5827F01
:1025C00007D102E00220BDE8F88FA16809B904280C
:1025D00001D00220A2E045B13EB1BBF1000F04D012
:1025E00094F85100012802D004E0012096E0052073
:1025F00084F8510000206065A663A4F83EB0A4F8FA
:102600003CB02563A4F836B0A4F834B0206460640C
:1026100020680168490603D4016841F04001016067
:10262000E068B0F5006F606804D0D0B3E08E012898
:1026300038D063E010B1E08E01282BD1216835F845
:10264000020BC860E08E401EE08623E067B1E08E9A
:1026500050B120688168890706D535F8021BC16032
:10266000E08E401EE0860027E08F50B12068816830
:10267000C90706D0C06826F8020BE08F401EE0872D
:102680000127B8F1FF3F05D0FEF702FFA0EB0A01DA
:10269000414542D2E08E0028D8D1E08F0028D5D124
:1026A00032E0FFE7216815F8010B0873E08E401E49
:1026B000E08623E067B1E08E50B120688168890729
:1026C00006D515F8011B0173E08E401EE086002739
:1026D000E08F50B120688168C90706D0C06806F84D
:1026E000010BE08F401EE0870127B8F1FF3F05D0C6
:1026F000FEF7CEFEA0EB0A0141450ED2E08E002887
:10270000D8D1E08F0028D5D14346012202212046AE
:10271000CDF800A001F0F1FD10B10320814610E0DA
:1027200052464146204601F0D8FD20B120204FF00E
:102730000109606505E0A06818B92068C168806873
:102740000090012084F85100002084F85000484691
:1027500039E710B5401EB0F1807F01D3012010BDD4
:102760004FF0E02460610F21601701F0A5FD00200B
:10277000A06107202061002010BD0000054A10B5AF
:102780000146137800208B4203D011705068FFF788
:1027900025FA10BD180100207047704730B590F839
:1027A0003C20012A20D0012380F83C30022280F80E
:1027B0003D200268546824F0700454600268546834
:1027C0000D682C4354600268946824F0800494607F
:1027D0000268946849680C43946080F83D30002199
:1027E00080F83C10084630BD022030BD10B5040012
:1027F00003D094F83D0010B107E0012010BD002087
:1028000084F83C00204600F00DF8022084F83D00DA
:10281000211D206801F058FE012084F83D000020B1
:1028200010BD000008B50068614A624990420ED1AF
:10283000C86940F00800C861C869002200F00800BB
:10284000009002213220FFF715FA3220AAE05A4AFE
:1028500090420ED1C86940F01000C861C8690022DA
:1028600000F01000009002213620FFF703FA362016
:1028700098E0524A90420ED1C86940F02000C861E9
:10288000C869002200F02000009002213720FFF7E5
:10289000F1F9372086E04A4A904218D1886940F41D
:1028A000005088618869002200F4005000900221E5
:1028B0002B20FFF7DFF92B20FFF7D0F900220221B0
:1028C0002C20FFF7D7F92C20FFF7C8F964E03D4A28
:1028D00090420ED1886940F4002088618869002206
:1028E00000F40020009002211820FFF7C3F91820FF
:1028F00058E0354A90420ED1886940F480108861D2
:102900008869002200F48010009002211920FFF74E
:10291000B1F9192046E02D4A90420ED1886940F461
:10292000001088618869002200F4001000900221E4
:102930001A20FFF79FF91A2034E0254A90420ED161
:10294000C86940F04000C861C869002200F040003A
:10295000009002212B20FFF78DF92B2022E01D4A49
:1029600090420ED1C86940F08000C861C869002259
:1029700000F08000009002212C20FFF77BF92C2032
:1029800010E0154A904211D1C86940F48070C861C6
:10299000C86900F480700090002202212D20FFF70A
:1029A00069F92D20BDE80840FFF758B908BD0000BF
:1029B000000C0040001002400010004000140040D5
:1029C00000340140004C01400050014000540140DF
:1029D00000180040001C0040002000400168CA6848
:1029E00042F00102CA600068016841F00101016023
:1029F000002070470168CA6822F00102CA600068BE
:102A0000016A41F21112114207D1016A921011427A
:102A100003D1016821F0010101600020704770B509
:102A2000044690F83C00012817D0012584F83C505A
:102A3000022084F83D002068826822F0770222F4A8
:102A40007F4282600868502836D00DDC202858D09C
:102A500005DC80B3102840D150E0022070BD302842
:102A600052D0402839D13EE060282DD070280BD0BC
:102A7000B0F5805F03D0B0F5005F2ED110E0206884
:102A8000816821F0070109E0CB68D1E901212068C4
:102A900001F089FD2068816841F0770181601CE0C8
:102AA000CB68D1E90121206801F07DFD20688168B3
:102AB00041F48041F2E71EE0CA684968206801F0ED
:102AC00047FE5021206806E0CA684968206801F086
:102AD00050FE6021206801F070FD84F83D50002018
:102AE00084F83C0070BDCA684968206801F030FE77
:102AF00040212068EFE700212068ECE710212068E2
:102B0000E9E720212068E6E730212068E3E7704705
:102B100070B50446006801694FF00005C943890794
:102B200015D4C168C943890711D4E91E0161012088
:102B30002077206880698007204602D0FFF7E7FFF2
:102B400004E000F0CBF8204600F060F9257720681B
:102B50000169C943490717D4C168C943490713D458
:102B60006FF004010161022020772068806910F471
:102B7000407F204602D0FFF7CAFF04E000F0AEF825
:102B8000204600F043F9257720680169C943090709
:102B900016D4C168C943090712D46FF00801016156
:102BA000042020772068C0698007204602D0FFF704
:102BB000AEFF04E000F092F8204600F027F92577F8
:102BC00020680169C943C90617D4C168C943C90649
:102BD00013D46FF010010161082020772068C069CC
:102BE00010F4407F204602D0FFF791FF04E000F090
:102BF00075F8204600F00AF9257720680169C94375
:102C0000C90708D1C168C943C90704D1891E016138
:102C1000204600F019F920680169C943090609D462
:102C2000C168C943090605D46FF0800101612046DF
:102C3000FFF7B2FD20680169C943490609D4C1689C
:102C4000C943490605D46FF040010161204600F0F8
:102C500045F920680169C94389060BD4C168C94395
:102C6000890607D46FF0200101612046BDE870405D
:102C7000FFF793BD70BD000000B585B00021009145
:102C80000191029103910068104988421BD11048BC
:102C9000816941F0100181618069694600F010008E
:102CA00004904FF470700090022001900390094846
:102CB000FEF7EEFA0849486820F4406040F0E06012
:102CC00040F44060486005B000BD000000040040D2
:102CD000001002400010014000000140704770B534
:102CE000044690F83C000D4601280DD0012684F8DA
:102CF0003C60022084F83D0042B1042A18D0082A22
:102D00002AD00C2A4DD139E0022070BD206801F094
:102D10005DFC2068816941F008018161206881695A
:102D200021F004018161206881692A69114311E061
:102D3000206801F07BFC2068816941F400618161B9
:102D40002068816921F480618161206881692A6934
:102D500041EA0221816124E0206801F09DFC2068A5
:102D6000C16941F00801C1612068C16921F0040115
:102D7000C1612068C1692A69114311E0206801F02E
:102D8000BFFC2068C16941F40061C1612068C1696C
:102D900021F48061C1612068C1692A6941EA022188
:102DA000C16184F83D60002084F83C0070BD10B51E
:102DB000040003D094F83D0010B107E0012010BDDD
:102DC000002084F83C00204600F00CF8022084F833
:102DD0003D00211D206801F077FB012084F83D00B3
:102DE000002010BD08B500680649884208D1064891
:102DF000C16941F00201C161C06900F002000090A8
:102E000008BD0000000400400010024070470000B0
:102E100010B504460068012201F0BAFB0848216899
:102E2000814202D00748814203D1486C40F40040FF
:102E300048642068016841F001010160002010BD74
:102E4000002C01400034014000681A49884201D139
:102E500000202BE01849884201D1012026E01749C3
:102E6000884201D1022021E01549884201D1032086
:102E70001CE01449884201D1042017E0124988421D
:102E800001D1052012E01149884201D106200DE050
:102E90000F49884201D1072008E00E49884201D13C
:102EA000082003E00C49884202D1092005F080BBCC
:102EB00070470000000C004000100040001400406B
:102EC00000340140004C01400050014000540140DA
:102ED00000180040001C0040002000407047704770
:102EE00070B5026804461068D168536910F00F0F7E
:102EF00050D003F0010501F4907635435DD0C20750
:102F000005D0CA0503D5E26B42F00102E263420735
:102F100005D5DA0703D0E26B42F00202E2638207D2
:102F200005D5DA0703D0E26B42F00402E263020740
:102F300005D5DA0703D0E26B42F00802E263E26BE8
:102F4000002A33D0800604D5880602D5204601F039
:102F500045FC20684069E16BC0F38010090700D48C
:102F600028B3204601F02CFC2068416949061AD597
:102F7000416921F040014161606BA0B11B4941638F
:102F8000606BFEF739F8002810D0606B416BBDE82C
:102F900070400847830610D58B060ED52046BDE845
:102FA000704001F01BBC2046FFF799FF70BD204622
:102FB000FFF795FF0020E06370BD030606D50B0602
:102FC00004D52046BDE8704001F00CBD4006F3D5A5
:102FD0004806F1D5D168204621F04001D16020217A
:102FE00084F8391000F01EFA70BD0000B1470008E7
:102FF00070B5040004D094F83900002510B106E043
:10300000012070BD84F83850204600F023F82420B9
:1030100084F839002068C16821F40051C16020465D
:1030200001F028FC2068016921F4904101612068C9
:10303000416921F02A0141612068C16841F40051D1
:10304000C160E563202084F8390084F83A0000204C
:1030500070BD0000F0B585B0002400940194029486
:1030600003940168724A7348704F15150223C61401
:103070004FF0030CB94224D1D16941F40021D16150
:10308000D16901F400210491916941F0100191612D
:10309000916901F01001CDE903C1CDE90053694602
:1030A0000546FEF7F5F8CDE9006469462846029426
:1030B000FEF7EEF8022201213420FEF7DBFD34207A
:1030C00031E0DFF874E10427714530D1D16941F472
:1030D0008011D161D16901F480110491916941F0AD
:1030E00010019161916901F010010491916941F021
:1030F000200191619169CDF80CC001F0200104918B
:10310000B902CDE900136946FEF7C2F8CDE90074B3
:1031100069464A480294FEF7BBF802220121352095
:10312000FEF7A8FD3520FEF799FD05B0F0BDDFF8EC
:1031300010E14448714526D1916941F48041916183
:10314000916901F480410491916941F00401916118
:103150009169CDF80CC001F0040104914115CDE94D
:10316000001369460646FEF793F8CDE90054694618
:1031700030460294FEF78CF8012211462520FEF716
:1031800079FD2520CFE7DFF8C0E0714525D1D16971
:1031900041F40031D161D16901F4003104919169A8
:1031A00041F0040191619169054601F00401CDE906
:1031B00003C1CDE900736946FEF76AF80820CDE93E
:1031C0000004694628460294FEF762F8012211467F
:1031D0002620FEF74FFD2620A5E71C488142A4D1FA
:1031E000D06940F48020D061D06900F48020049040
:1031F000906940F0080090619069CDE9005300F0BB
:103200000800CDE903C0124D69462846FEF740F894
:10321000CDE90064694628460294FEF739F8002299
:1032200001212720FEF726FD27207CE7004C0040E7
:103230000010024000100140005000400014014006
:1032400000380140000801400044004000480040B0
:10325000000C014090F83A30202B22D1F9B1F2B1A4
:1032600090F83830012B1CD081628285C285002104
:10327000C163222280F83A2080F838100168CA68B9
:1032800042F48072CA6001684A6942F001024A61F0
:103290000068C16841F02001C16000207047012032
:1032A000704702207047000010B5044601221849FB
:1032B000FFF7D0FF174B20681549174A984204D1F1
:1032C000D2F8B420097800201EE0144B984204D1B3
:1032D000D2F8C8210978012016E0114B984204D198
:1032E000D2F8DC22097802200EE00E4B984204D17D
:1032F000D2F8F0230978032006E00B4B984206D160
:10330000D2F8042509780420BDE81040104710BD0C
:103310000000002000380140581200200044004006
:1033200000480040004C0040005000402DE9F843A8
:10333000044690F839001E4617460D46202850D105
:10334000A5B19FB194F8380001284AD0012084F833
:1033500038004FF00008C4F83C80212084F8390080
:10336000FEF796F8A7848146E78426E00120BDE8B1
:10337000F883E08C401EE084A0684B46B0F5805F87
:103380004FF000024FF080012046009603D001F07C
:103390005AFBE8B90DE001F056FBC8B9288821684E
:1033A000C0F308004860206908B16D1C05E0AD1C41
:1033B00003E0216815F8010B4860E08C0028D8D1A3
:1033C0004B46002240212046009601F03CFB08B10C
:1033D0000320CCE7202084F8390084F838800020CE
:1033E000C5E70220C3E790F83930202B18D1A9B1E6
:1033F000A2B190F83830012B12D001628284C284CD
:103400000021C163212280F8392080F8381000683B
:10341000C16841F08001C160002070470120704701
:103420000220704710B500681149884201D1114847
:1034300018E01149884207D1104802F024FDBDE888
:103440001040002002F058BB0D49884201D10D48C0
:1034500008E00D49884201D10C4803E00C4988423C
:1034600004D10C48BDE8104002F00DBD10BD0000B5
:103470000038014058120020004400406C13002026
:103480000048004080140020004C004094150020AB
:1034900000500040A8160020FEE700000148FDF79C
:1034A000FFBF00005001002010B5406A01680A68A3
:1034B00022F480620A6000214185426B5163826B75
:1034C000516390F83D302022602B80F83D2080F839
:1034D0003E1007D001680A6822F001020A60FEF778
:1034E000D7F810BD016401680A6822F001020A6081
:1034F000FDF7D4FF10BD000070B590F83D100446F4
:1035000000262025006829292DD02A292BD094F8BF
:103510003D10602904D04168090501D484F83D506C
:10352000266384F83E60016821F400610160206830
:103530004168090537D5416821F400614160606B3D
:10354000344990F82120012A12D04163606BFDF7C5
:1035500053FD38B32068016821F00101016084F84F
:103560003D50606B1CE02663282184F83D10DAE7AB
:10357000A06B4163A06BFDF73FFD98B120684169E6
:10358000C943490604D40169606A421C6262017041
:103590002068016821F00101016084F83D50A06BB2
:1035A000416B88470FE094F83D1060291DD04169B8
:1035B000C943490604D40169606A421C6262017011
:1035C0002046FEF765F894F83D0028280CD1206CC1
:1035D000400709D51048E062266384F83D5084F81E
:1035E0003E602046FEF7F6F870BD84F83D50266434
:1035F0004169C943490604D40169606A421C626298
:1036000001702068016821F0010101602046FDF78A
:1036100045FFD8E7A93400080000FFFF01684A69A8
:10362000D24352050CD46FF480624A6104210164D4
:10363000002140F8301F202242730173012070479F
:103640000020704710B5C26A448D2F4B0168032CCF
:1036500003D0448D022C15D00AE0042A03D0082A96
:1036600001D09A4203D10A6822F480620A6001689C
:103670000A69416A4B1C43620A70418D491E4185AB
:10368000002010BD042A12D0082A10D09A420ED071
:10369000022A0A6802D022F4806201E042F48062C9
:1036A0000A6001684A6822F440724A6008E04A6889
:1036B00022F440724A6001680A6842F400720A60AB
:1036C00001680A69416A4B1C43620A70418D491EB8
:1036D000418501680A69416A4B1C43620A70418D49
:1036E000491E4185202180F83D100021016390F89A
:1036F0003E2080F83E10402A02D0FEF76CF8BFE76B
:10370000FEF76BF8BCE700000000FFFF10B590F873
:103710003D1022294CD1418D032909D901680A693C
:10372000416A4B1C43620A70418D491E41853FE04E
:10373000022909D0032907D0C16A022901680A6851
:1037400018D022F4806217E0C16A022901680A6871
:1037500007D022F480620A6001680A6842F40062BD
:1037600001E042F480620A600068416821F48061EF
:1037700041601DE042F480620A6001684A6822F4F8
:10378000E0624A6001680A69416A4B1C43620A7040
:10379000418D491E4185202180F83D1000210163A3
:1037A00090F83E2080F83E10402A03D0FEF713F830
:1037B000002010BDFEF711F8FAE710B5C16A90F8C5
:1037C0003D20212A21D1428D4AB1416A4A1C4262E0
:1037D000026809781161418D491E418515E0202359
:1037E0000022042913D0082911D011F5803F0ED0F2
:1037F00001684C6824F4E0644C601121016380F896
:103800003E2080F83D30FDF7E7FF002010BD016845
:103810004C6824F4E0644C6001680C6844F4007463
:103820000C60026380F83D3090F83E1080F83E2036
:103830004029E8D1FDF7D2FFE7E710B590F83D2029
:1038400090F83E30C16A048D24B1212A33D0402B38
:103850002FD073E0212AFAD120230022042912D08C
:10386000082910D011F5803F0DD001684C6824F470
:10387000E0644C601121016380F83E2080F83D3007
:10388000FDF7AAFF5AE001684C6824F4E0644C603C
:1038900001680C6844F400740C60026380F83D30E9
:1038A00090F83E1080F83E204029E9D1FDF796FFC0
:1038B00044E0222A42D1418D21B190F83E104029A6
:1038C00006D032E00068416821F48061416035E053
:1038D000016D31B1016D012911D0016D022915D0A1
:1038E0002CE0C16C0129816C02D0C1F3072108E0F2
:1038F0000268C9B21161016D891C01651EE0816C0D
:10390000C9B202681161016D491CF6E790F83D10DB
:10391000222904D090F83D10212906D00EE000683D
:10392000016841F48071016008E0416A4A1C42620A
:10393000026809781161418D491E4185002010BD42
:1039400078B590F83E50C26A046B90F83D60002351
:103950000168222E06D1066D0EB9402D02D0056DEC
:1039600025B107E04869886900901CE00569B5F554
:10397000404F1AD0458D85B3458D012D20D0428D05
:10398000022A4AD00A6842F480620A6001684A68E2
:10399000120503D54A6842F480524A6001684A69B8
:1039A000896900910365002078BD4A698A6900929F
:1039B0000A6842F480720A60016D491C0165F2E7F1
:1039C00012F5803F0AD0042A21D0082A1FD0122CD9
:1039D0001DD0C26A022A09D114E00BE00A6822F461
:1039E00080620A6001684A68120503D50A6822F4F9
:1039F00080620AE04A698A6900920A6842F40072A9
:103A00000A60CFE70A6842F480620A60C6E70A6883
:103A100022F480620A600168ECE7C26A022A0A683E
:103A20000BD042F400620A6001684A698A69009218
:103A30000A6822F480620A6006E042F480620A604A
:103A400001684A698969009101684A681205A9D527
:103A50004A6842F480524A60A4E790F83E10402938
:103A600009D00169B1F5804F10D0016D99B1016D98
:103A7000012915D01CE0016D19B9416C01F0FE015E
:103A800014E0416CC9B241F001010FE090F83D1023
:103A90002129F6D1F1E7416CF02201F4407103E0F5
:103AA000416CF12201F4407142EAD11100680161D8
:103AB000002070472DE9F84F0446006889460B9EA8
:103AC00001689846174641F48061016020680168EA
:103AD00041F48071016000964FF0011A00225146B6
:103AE00020460A9B00F043F9F0BB216809F0FE0074
:103AF00008610AF1010B3346594620460A9A00F044
:103B000066F918B1206C042812D03AE020684169A7
:103B100080690090324620460A9900F0CDF950B1F4
:103B2000206C04282DD12068016841F400710160E7
:103B30000120BDE8F88FFDB2B8F1010F09D021686E
:103B4000380A0861324620460A9900F0B5F9002883
:103B5000E6D120680561324620460A9900F0ACF9AA
:103B60000028DDD1206800E00BE0016841F480719D
:103B7000016000960022514620460A9B00F0F7F8AB
:103B800008B10320D5E7216809F0FF0040F00100EB
:103B900008613346594620460A9A00F018F9002871
:103BA000B0D1C6E72DE9F843044600680D46DDE9CB
:103BB000089701689846164641F4807101604B46AB
:103BC00000224FF001112046009700F0D0F8E8B92C
:103BD000216805F0FE0008613B464A461849204628
:103BE00000F0F5F828B1206C04280FD10120BDE8C1
:103BF000F88320684169806900903A46494620462A
:103C000000F05AF920B1206C042813D00320EEE70D
:103C1000F5B2B8F1010F09D02168300A08613A46BF
:103C20004946204600F048F90028ECD1206805619B
:103C30000020DCE72068016841F400710160D5E7ED
:103C40000200010038B590F83D100268536823F473
:103C5000E06353600268002354690094146844F0E0
:103C6000010414600268146824F48064146002681B
:103C7000546824050BD590F83D40222C2BD090F8A9
:103C80003D402A2C27D0446B246864684485448DC9
:103C9000E4B15469E443640707D41469426A551CCB
:103CA00045621470428D521E428502685469E44395
:103CB000640607D41569426A541C44621570428D2B
:103CC000521E4285026C42F004020264026C22B170
:103CD000FFF712FC1FE0846BD6E72022282909D0C9
:103CE0002A2907D0292905D0046B222C0CD022299F
:103CF0000AD010E00949C162036380F83D2080F8D2
:103D00003E30FDF767FD06E0036380F83D2080F854
:103D10003E30FDF747FF002038BD00000000FFFFE8
:103D200070B516460D4604461AE02046FFF776FCAD
:103D300008B1012070BD681C12D025B1FDF7A8FBA9
:103D4000801BA8420CD954F8400F40F0200044F8E2
:103D5000100900202060202161732073032070BDB2
:103D600020684069C0434007DFD4002070BD2DE9C2
:103D7000F0471D4690460E460446C1F30747DDF85E
:103D8000209012E0681C10D02DB1FDF781FBA0EB54
:103D90000900A84209D9002044F8300F202161739E
:103DA000A07320730320BDE8F0872068012F0AD09C
:103DB000806926EA00000004000C06D0002040457F
:103DC000E0D00020EFE74069F3E70120F7E72DE9B5
:103DD000F047984615460E4604464FF000094FF04E
:103DE000200AC1F3074729E020684069C043400525
:103DF00013D42068016841F40071016021686FF4F8
:103E00008060486104202064C4F8309084F83DA0AC
:103E100084F83C900120BDE8F087681C0ED02DB1DD
:103E2000FDF736FBA0EB0800A84207D944F8309F05
:103E300084F80DA084F80C900320ECE72068012F93
:103E400006D0806926EA00000004000CE3D0CBE72E
:103E50004069F7E72DE9F04116460D460446002774
:103E60004FF0200821E04069C043C0060CD421680F
:103E70006FF0100048612764276384F83D8084F860
:103E80003C700120BDE8F08125B1FDF701FB801BEE
:103E9000A8420AD954F8400F40F0200044F8040921
:103EA00084F8018027700320ECE720684169C9434A
:103EB0004906D8D40020E5E770B516460D460446FD
:103EC0001AE02046FFF7AAFB08B1012070BD681C6C
:103ED00012D025B1FDF7DCFA801BA8420CD954F8AA
:103EE000400F40F0200044F81009002020602021FD
:103EF00061732073032070BD20684069C0430006D1
:103F0000DFD4002070BD00000B480A494FF4003296
:103F100001603C21416000218160C0E90312D200B0
:103F20004261017641768176C17601774177FCF76F
:103F30006EBF000000640040280100202DE9F04F12
:103F400085B000247C480094019402940394816914
:103F500041F040018161816901F040010491816972
:103F600041F010018161816901F0100104918169C2
:103F700041F080018161816901F0800104918169D2
:103F800041F004018161816901F0040104918169BA
:103F900041F008018161816901F0080104918169A2
:103FA00041F480718161816901F4807104918169BA
:103FB00041F0200181618069DFF880B100F02000CC
:103FC0004FF6FF770490002239465846FDF75BFA1A
:103FD000002239465A48FDF756FA00222F21594847
:103FE000FDF751FA002202215748FDF74CFA41F241
:103FF0000208002241465548FDF745FA40F2FB19F8
:10400000002249465248FDF73EFA4FF47F4A00220B
:1040100051465048FDF737FA0126CDE900760225D2
:1040200069465846CDE90245FDF732F9CDE90076FB
:1040300069464348CDE90245FDF72AF92F20CDE92D
:10404000000669463F48CDE90245FDF721F9CDE973
:10405000005669463C48CDE90245FDF719F9CDE91E
:10406000008669463948CDE90245FDF711F9CDE9E9
:10407000009669463648CDE90245FDF709F9CDE9D4
:1040800000A669463348CDE90245FDF701F9324DF6
:104090004FF60460CDE90005694602942C48FDF70F
:1040A000F7F83002CDE90005694602942648FDF78D
:1040B000EFF8FB20CDE90005694602942548FDF79D
:1040C000E7F8012200210620FDF7D4FD0620FDF7C8
:1040D000C5FD012200210720FDF7CCFD0720FDF7DB
:1040E000BDFD012200210820FDF7C4FD0820FDF7D9
:1040F000B5FD012200210920FDF7BCFD0920FDF7D7
:10410000ADFD012200210A20FDF7B4FD0A20FDF7D4
:10411000A5FD012200211720FDF7ACFD1720FDF7BA
:104120009DFD012200212820FDF7A4FD2820FDF798
:1041300095FD05B0BDE8F08F001002400018014069
:10414000001C01400010014000080140000C01402B
:104150000020014000140140000031100C480B49C0
:104160004FF4007201604FF4827141600021816060
:10417000C1600161C0E90512C161016241621101C2
:1041800081620A21C162FEF72DB8000000380040AC
:10419000A401002010B58AB0002407941C216846B1
:1041A0000894FBF7F8FF1948174901604721C0E957
:1041B00001146321C0E903148461FEF7F8FD07943C
:1041C00007A912480894FEF7E9FA6020CDE9000437
:1041D0000294002269460D480494FEF780FD0422F3
:1041E00069460A48FEF77BFD082269460748FEF744
:1041F00076FD0C2269460548FEF771FD0348FEF77F
:104200003BFD0AB010BD000000040040FC0100208E
:1042100010B586B0002411480094019402940394D0
:1042200004940D49059401604721C0E9011403215C
:10423000C0E903148461FEF7D9FA4FF4805000906E
:1042400069460648FEF7EBFB049404A9034805946D
:10425000FEF7A4FA06B010BD000C00403C0200209E
:1042600010B586B00024124800940194029403947F
:1042700004940E49059401604721C0E9011403210B
:10428000C0E9031444618461FEF7B0FA4FF4805032
:10429000009069460648FEF7C2FB049404A904484E
:1042A0000594FEF77BFA06B010BD00000034014013
:1042B000FC020020FEE770470907090E002806DA15
:1042C00000F00F0000F1E02080F8141D704700F1AD
:1042D000E02080F800147047704738B50B46009214
:1042E00004460022802100F008F8002804D0606D08
:1042F00040F020006065032038BD2DE9F0411D46E7
:1043000017460E460446DDF8188035E0681C33D0A9
:104310002DB1FDF7BDF8A0EB0800A8422CD3206812
:10432000416821F0E00141606068B0F5827F0BD107
:10433000A068B0F5004F02D0B0F5806F04D12068BE
:10434000016821F040010160A06AB0F5005F0AD168
:10435000206801684DF6FF72114001602068016815
:1043600041F400510160012084F85100002084F8DC
:1043700050000320BDE8F0812068806836EA000024
:1043800004D00020B842C1D10020F3E70120F9E7B2
:104390007047FDF709BC30B58FB028216846FBF7A0
:1043A000FAFE14210AA8FBF7F6FE01210804CDE964
:1043B00000100024029402250491CDE907504FF427
:1043C000E01009906846FDF791FD0F20CDE90A0540
:1043D0006802CDE90C4002210AA80E94FDF77CFC8E
:1043E0000FB030BD0D48016841F001010160416826
:1043F0000B4A1140416001680A4A1140016001689E
:1044000021F480210160416821F4FE0141604FF4F4
:104410001F0181600449C00308607047001002401A
:104420000000FFF8FFFFF6FE08ED00E00148FEF790
:104430006FBB00003C0300200148FEF769BB000091
:10444000BC0300200148FEF763BB00007C03002092
:104450000148FEF75DBB00003C0200200148FEF76A
:1044600057BB00007C0200200148FEF751BB000052
:10447000BC02002010B50448FEF74AFBBDE810401E
:104480000248FEF745BB0000FC020020FC030020B0
:1044900010B50448FEF73CFBBDE810400248FEF7AB
:1044A00037BB0000FC0200207C04002010B504484B
:1044B000FEF72EFBBDE810400248FEF729BB0000C6
:1044C000FC0200203C040020F0B50268254D264E79
:1044D000264FDFF89CC0274B4FF0804EA84209D0F2
:1044E000984207D0704505D0B04203D0B84201D001
:1044F000604503D122F070044A682243A8421BD0D1
:10450000984219D0704517D0B04215D0B84213D098
:10451000604511D0184CA0420ED0184CA0420BD0D0
:10452000174CA04208D0174CA04205D0164CA04210
:1045300002D0164CA04203D122F44074CA68224330
:104540004C6922F08002144304608A68C2620A68DF
:104550008262A84201D0984201D109690163012118
:104560004161F0BD002C0140000400400008004003
:10457000000C004000340140004C0140005001405C
:104580000054014000180040001C00400020004082
:1045900010B50123046A8B409C430462036A8A407D
:1045A0001343036210BD10B5846842EA032224F469
:1045B0007F440A432243826010BD826822F0700269
:1045C0000A4342F00701816070470000F0B5026ABB
:1045D00022F001020262026A43688469114E24F0EB
:1045E00073050C68104F2C4322F002058A682A4399
:1045F000B04201D0B84205D122F00805CA682A436A
:1046000022F00402B04201D0B84205D14D6923F432
:1046100040731D438B692B43436084614968416348
:104620000262F0BD002C014000340140F0B5026A86
:1046300022F010020262026A436884690D6824F461
:10464000E64444EA05248D6822F0200242EA05127D
:104650000F4D104EA84201D0B04206D1CF6822F0D3
:10466000800242EA071222F04002A84201D0B04282
:1046700007D14D6923F4406343EA85038D6943EA1A
:10468000850343608461496881630262F0BD000074
:10469000002C014000340140F0B5026A22F480721F
:1046A0000262026A4368C46922F4007224F073054E
:1046B0000C68124E2C438D6842EA05220E4DA8422A
:1046C00001D0B04206D1CF6822F4006242EA07224C
:1046D00022F48062A84201D0B04207D14D6923F490
:1046E000405343EA05138D6943EA05134360C461EF
:1046F0004968C1630262F0BD002C014000340140F2
:1047000030B5026A22F480520262036A4268C469C8
:104710000D6824F4E64444EA05248D6823F400532C
:1047200043EA0533084DA84202D0084DA84204D1FF
:104730004D6922F4804242EA85124260C4614968B0
:104740000164036230BD0000002C014000340140D0
:1047500010B5046A036A23F001030362836923F03E
:10476000F00343EA021324F00A020A43836102625F
:1047700010BD10B5036A23F0100303628469036A55
:1047800024F4704444EA023223F0A00343EA011106
:104790008261016210BD00000148FEF7A1BB00006C
:1047A000BC0400200148FEF79BBB0000FC04002075
:1047B00010B5406A0021C185C184FEF790FB10BD91
:1047C0000168CA6822F49072CA6001684A6922F0DE
:1047D00001024A61202180F83A10704710B590F824
:1047E0003A10222901D0022010BD8168B1F5805F06
:1047F00011D00169002901681FD0496801F07F03C9
:10480000816A4A1C82620B70C18D491E0904090C21
:10481000C18518D02BE00269816A002A02685268BB
:1048200005D0D2B20A80816A491C8162ECE7C2F3EA
:1048300008020A80816A891CF7E74A68816A4B1C72
:1048400083620A70E0E70168CA6822F02002CA6049
:104850000168CA6822F48072CA6001684A6922F05D
:1048600001024A61202180F83A10FEF71DFD002068
:1048700010BD00002DE9F041044600680169E268BE
:1048800021F4405111430161A1682069014360692D
:1048900001432068C26841F20C639A430A43C26034
:1048A00020684169A26921F44071114341614C497A
:1048B00020686426322788423CD1FDF7D1FA00EB0C
:1048C000C00101EB001061688900B0FBF1F5FDF754
:1048D000C7FA00EBC00101EB00106168B84689001F
:1048E000B0FBF1F0B0FBF6F06FF01801484305EBB8
:1048F000800107EB0110B0FBF6F000F0F005FDF7CA
:10490000AFFA00EBC00101EB001061688900B0FB59
:10491000F1F0B0FBF6F005EB0015FDF7A1FA00EBA6
:10492000C00101EB001061688900B0FBF1F7FDF7F1
:1049300097FA3BE0FDF784FA00EBC00101EB0010B1
:1049400061688900B0FBF1F5FDF77AFA00EBC00170
:1049500001EB00106168B8468900B0FBF1F0B0FBD4
:10496000F6F06FF01801484305EB800107EB0110EA
:10497000B0FBF6F000F0F005FDF762FA00EBC001C5
:1049800001EB001061688900B0FBF1F0B0FBF6F0BC
:1049900005EB0015FDF754FA00EBC00101EB001028
:1049A00061688900B0FBF1F7FDF74AFA00EBC0013E
:1049B00001EB001061688900B0FBF1F0B0FBF6F08C
:1049C0006FF01801484307EB800108EB0110B0FBC2
:1049D000F6F0216800F00F0028448860BDE8F081FF
:1049E0000038014090F83910212901D00220704789
:1049F0008168B1F5805F016A0BD04A1C02620268CF
:104A000009785160C18C491E0904090CC1840ED07B
:104A100017E009880268C1F30801516001690029A3
:104A2000016A02D0491C0162ECE7891CFBE70168BE
:104A3000CA6822F08002CA600068C16841F0400183
:104A4000C160002070472DE9F0411E461746884698
:104A50000446069D1CE0681C1AD025B1FCF718FD21
:104A6000801BA84214D92068C16821F4D071C160AC
:104A70002068416921F001014161202084F839005A
:104A800084F83A00002084F838000320BDE8F08163
:104A90002068016838EA010004D00020B842DAD06A
:104AA0000020F3E70120F9E70148FEF719BA0000FA
:104AB0003C0500200148FEF713BA00007C050020E9
:104AC0000148FEF70DBA0000BC0500200148FCF7C4
:104AD000A0B80000280100200148FCF79AB80000A7
:104AE00028010020FEE702E008C8121F08C1002AC2
:104AF000FAD170477047002001E001C1121F002A5F
:104B0000FBD1704710B5042003F000F8084C08B939
:104B100001202070052002F0F9FF08B90220207062
:104B2000062002F0F3FF002801D10320207010BD01
:104B30002812002070B50021B0F8CC300C4600F1EE
:104B40001405BBB190F8CB20521C02F03F03EA5C85
:104B500052080FE090F8CB608B1C334490F903604F
:104B600003F03F0300EBC606EB5CD6F8D860735445
:104B7000491CC9B2B1EB420FECD390F903204FF0BE
:104B8000FF3100EBC20282F8D410C17000218160B5
:104B900001F02AF8204670BD70B504460026B4F82E
:104BA000CC10143004F15C03052953D194F8CB20C8
:104BB000511C01F03F01415C0D02911C01F03F01CD
:104BC000121D415C02F03F022943855C681E7C286F
:104BD00040D894F89C0084F8CE0062788AB3012A09
:104BE00030D0C01D00F03F0084F89C000020A4F8E5
:104BF000D00094F89C200320985494F89C00401C0A
:104C000000F03F0084F89C00B4F8D020521CA4F8B7
:104C1000D0206A001A5494F89C000023401C00F035
:104C20003F0084F89C00B4F8D0002A46401CA4F849
:104C3000D000204600F096F930B104F0B7F90646EE
:104C400009E0FFE7401CCDE734F8D00F00EB45004A
:104C5000208000E00326304670BD002070472DE91B
:104C6000F047044600F1140500F15C07B0F8CC00F1
:104C70004FF000080A2878D394F8CB00411C01F0CB
:104C80003F01695C0A02811C01F03F01695C11432C
:104C9000491C1FFA81F9C11C021D01F03F0102F0FD
:104CA0003F02695CAE5C46EA0126411D01F03F010E
:104CB000A6F1010C695C0A02811D01F03F01695CEB
:104CC0001143C21D02F03F02491CAA5C89B21302C3
:104CD00000F1080202F03F02AA5C1A4300F1090346
:104CE00003F03F03BCF17C0FEB5C5FD8E2B3792AA1
:104CF0005CD8B3EB420F59D10A3000F03F0084F882
:104D000055000123204600F02DF978BB94F89C0053
:104D100084F8CE00617851B301293DD0C01D00F068
:104D20003F0084F89C0094F8CB0094F89C1000F0AD
:104D30003F00285C7854B4F8D0001721401CA4F838
:104D4000D00094F89C00401C00F03F0084F89C00C8
:104D50003954B4F8D000401CA4F8D00094F89C005A
:104D6000401C00F03F0003E020E01CE010E013E0F6
:104D700084F89C0071003954B4F8D0000023401C22
:104D8000A4F8D00032464946204600F0EBF828B19E
:104D900004F00CF9804606E0401CC0E734F8D00F60
:104DA00000EB460020804046BDE8F0870320F1E795
:104DB0000020704770B5B0F8CC20002400F1140139
:104DC000052A02D00324204670BD90F8CB20531C46
:104DD000951C03F03F0305F03F05CB5C495DD21CF9
:104DE00041EA032102F03F0280F8552001231A46D0
:104DF00000F0B8F80028E6D004F0D8F80446E2E75E
:104E000010B590F90320FE2100EBC202002482F8C5
:104E1000D410FF21C170846000F0E6FE204610BD72
:104E20002DE9F04104461430B4F8CC104FF00008DE
:104E300004F15C05062972D394F8CB108B1C4A1C34
:104E400003F03F0302F03F02C75C825C0B1D47EAA0
:104E50000227CA1C02F03F0203F03F03825CC65CDB
:104E600046EA02264A1D02F03F02805C721E772A43
:104E700076D87206120E824272D1891D01F03F006F
:104E800084F85500012332463946204600F06AF87E
:104E9000014694F89C0084F8CE006278F2B3012AAF
:104EA00056D0C01D00F03F0084F89C000020A4F8FC
:104EB000D00094F89C201020A85494F89C00401C2A
:104EC00000F03F0084F89C00B4F8D020521CA4F8F5
:104ED000D0203A0A2A5494F89C00401C00F03F006D
:104EE00084F89C00B4F8D020521CA4F8D0202F5491
:104EF00094F89C00401C00F03F0084F89C00B4F83B
:104F0000D020521CA4F8D020320A2A5494F89C00D5
:104F1000401C00F03F0084F89C0001E018E01FE016
:104F2000B4F8D020521CA4F8D0202E5494F89C0041
:104F3000401C00F03F0084F89C00B4F8D000401CF6
:104F4000A4F8D00031B1084604F030F8804604E0FF
:104F5000401CA7E70520A4F8D0004046BDE8F0813A
:104F60000320F3E7F8B5A1F51C470024413F42F2C6
:104F70000E7C00F1140600F15C05674547D8DFF8A8
:104F8000BCC049F6414E8F18BCF800C0F4446745D8
:104F90003DD849002A4FA1EB4E01D3B1012B4BD193
:104FA00032E07B1890F89C605B78521EAB5590F80D
:104FB0009C3092B25B1C03F03F0380F89C307E5C17
:104FC000EE5490F89C305B1C03F03F0380F89C305B
:104FD000891C002AE5D12FE090F855307D18521E2B
:104FE000F35C6B7090F8553092B25B1C03F03F039A
:104FF00080F85530F35C7B5490F855305B1C03F01F
:105000003F0380F85530891C002AE5D114E013B124
:10501000012B11D108E00B46009200F19C013F22C8
:10502000284602F076FE07E00B46009200F155019B
:105030003F22304602F0BAFE2046F8BD00010020B3
:105040002812002070B505460020FBF7EDFCFBF7A9
:1050500032FB00F13204FBF72EFBA042FBD901200A
:10506000FBF7E2FCFBF727FB00F1C804FBF723FB8F
:10507000A042FBD9FBF7E6FC04482946044A038812
:1050800004480078BDE87040FBF7DEBB28920008BA
:10509000239200082292000863210A4A072806D2B8
:1050A000DFE800F0040605080A0C0E009171704755
:1050B0009170704711717047117570479175704705
:1050C00011767047281200201FB5FCF775FDFFF719
:1050D00062F9FEF733FF7D487B494FF4E13501600B
:1050E0000024C0E901540C21C460C0E9044184617A
:1050F000C461FDF77DFF75497548403108604FF484
:105100001650486008468460C46004610C20486101
:1051100008468461C461FDF76BFF6C486D498030BF
:105120000160C0E901540C21C460C0E904418461FC
:10513000C461FDF75DFF6548674980380160C0E9DB
:1051400001540C21C460C0E904418461C461FDF7CD
:105150004FFF5E48614940380160C0E901540C21AD
:10516000C460C0E904418461C461FDF741FF5D4949
:105170005B4808605C484860084684601420C8604A
:105180004FF480400861084644618461C461046250
:10519000FCF780FAFEF7E2FFFEF7FCFF54485349A4
:1051A00047250160C0E901540326C0E90364846116
:1051B000FDF71CFB5048009401944E49C660016005
:1051C000C0E901548461FDF711FB009469464A4827
:1051D0000194FDF7E3FAFFF743F84548009480385F
:1051E00001940294454903940160C0E90154C0E967
:1051F00003648461FDF7FAFA4FF4805000903C4854
:1052000069468038FDF70BFC39483D49403801605C
:10521000C0E90154C0E903648461FDF7E7FA34484A
:105220000094403001940294364903940160C0E92F
:105230000154C0E903648461FDF7D8FA4FF480504B
:1052400000902B4869464030FDF7E9FB28482E497D
:1052500080300160C0E90154C0E903648461FDF756
:10526000C5FA1A482949C0380160C0E90154C0E9AB
:1052700003648461FDF7BAFA1F4800944038019432
:105280002349C6600160C0E901548461FDF7AEFAAC
:1052900019480094694640380194FDF77FFAFEF7FB
:1052A000B7FFFEF731FE0120FDF768FA03F034FE88
:1052B00000F0F4FD384603F049FE0700FAD100F093
:1052C0000BFF0746F6E70000003801403C050020D0
:1052D0000044004000480040004C004000500040A6
:1052E0000054004050010020A086010000540140FD
:1052F000BC03002000140040BC020020004C014010
:105300000050014000180040001C004000200040F8
:105310000010004070B500EB800101EB80101449D3
:105320003F2301EB8004A17814F8CE2FA4F1720082
:1053300005461154608814F83219401C82B2284680
:1053400003F040FE024694F8320094F8341008440A
:10535000401C00F03F0121704A552078401C00F0AD
:105360003F0004F89C092046BDE8704000F043BCB3
:10537000581200202DE9F0410E4600EB800101EBB0
:1053800080100F491F46944601EB80040025072238
:1053900039466046069B00F0ADFB012801D003258D
:1053A00006E04FF47A70C4F8A8000220C4F8B000F8
:1053B0000449A670002048702846BDE8F08100002E
:1053C000581200200A0100202DE9F0410D46064642
:1053D00000EB86002F4900EB861001EB800420468D
:1053E00000F03BFD002301272B4A3A2D0AD00A2D5D
:1053F0000CD05078002807D0A5F13000092823D818
:10540000C0B229E013705770BDE8F08194F85400E1
:10541000411E01F003012144097D0D29F4D1517889
:105420000129F1D194F85A5004F15601685494F8C6
:105430005A00401C00F0030084F85A0053702046C4
:10544000BDE8F04100F0F8BCA5F14100052802D804
:10545000373DE8B200E0FF20157806EB860101EB4E
:1054600086110C4E06EB810114316DB1012DCBD1AB
:1054700014F8545F6E5C06436E542078401C00F0B4
:10548000030020701370BFE794F8543000015854A3
:105490001770B9E7581200200A01002000EB8001C4
:1054A00001EB8010064901EB800090F85B1090F84A
:1054B0005A00814201D0012070470020704700004F
:1054C000581200202DE9FC410E4600EB800101EB53
:1054D00080101749904601EB80071D46002401AA61
:1054E0006946384600F0EAFA9DF80420032A07D3FB
:1054F0003F239DF8001007F1140003F063FD18B17D
:1055000005242046BDE8FC819DF8000000F03F0026
:105510003844007D30709DF80400801E28809DF87E
:105520000000401C00F03F0188F80010E9E700008F
:105530005812002000EB800101EB801010B50A49E1
:1055400001EB800494F8A30094F8A210884201D1E2
:10555000002010BD204600F08AFC0028F9D020462B
:1055600000F0E2FA012010BD5812002030B590F88A
:105570009C2080F8CE20437813B3012B20D0D21D7D
:1055800002F03F0280F89C200022A0F8D02090F882
:10559000CA2010F89C5F42F08004A0F1400213463C
:1055A000AC540278521C02F03F020270848E641CDC
:1055B0008486D1540178491C01F03F01017030BD4F
:1055C000521CDDE70246002002EBC00393F9D43001
:1055D0008B4205D0401C40B20828F5DB4FF0FF306D
:1055E00070470000F8B505461F008C4605EB8504A2
:1055F000DFF8CCE0DDE9073104EB85140EEB840421
:10560000069E4FF0000084F800C001D0F72F01D9AA
:105610000220F8BD4FF0000CEAB1012A35D0022A71
:10562000F7D10220607084F8C8C02648C4F8B400DE
:105630002548C4F8B8002548C4F8BC002448C4F87C
:10564000C0002448C4F8C400324639462846BDE8A4
:10565000F84000F031BB84F801C084F8C8C01E488F
:10566000C4F8B4001D48C4F8B8001D48C4F8BC0014
:105670001C48C4F8C0001C48C4F8C4000091F2B231
:105680003946284600F0FCF8F8BD0120607084F827
:10569000C8C01648C4F8B4001548C4F8B800154886
:1056A000C4F8BC001448C4F8C0001448C4F8C400CE
:1056B0000091F2B239462846FFF75CFEF8BD0000C3
:1056C00058120020E95C0008555D0008015E0008E2
:1056D0007D5D0008115C0008A5590008D559000837
:1056E000855A0008155A000815580008C9530008C3
:1056F0009D54000835550008C5540008155300088E
:105700002DE9F041074600EB8700404900EB871088
:1057100001EB8004002694F8C80040B10025012860
:105720000CD03B4A022829D0032820D152E0D4F8DB
:10573000B81038468847012812D018E004F1CC038D
:105740005A1ED4F8C0C0911E3846E04768B994F894
:10575000C900A178884200D048B9207818B1032048
:1057600084F8C80003E00220FAE784F8C850D4F8AF
:10577000BC10384688473046BDE8F08194F8CB002D
:10578000012300F03F00204490F814C084F8CAC000
:10579000002000EB400112F8211069B1614508D1E9
:1057A00000EB400002EB800041682046884703463A
:1057B00002E0401C1028ECDB94F8C9000028D4D08B
:1057C0001BB119462046FFF7D1FED4F8C410384665
:1057D0008847CAE794F8CB0000F03F002044017DE1
:1057E00084F8CA10002000EB400312F823308B42EB
:1057F00007D100EB400002EB80008168204688471B
:10580000B3E7401C1028EEDBAFE700005812002081
:105810004000002070B500EB800101EB80101749BB
:105820003F2301EB8004A07814F8CE1FA4F1720589
:105830004855608814F83219401C82B2284603F09B
:10584000CFFB94F8321094F834201144491C01F035
:105850003F01217048552178000A491C01F03F01A1
:10586000217048552078401C00F03F0004F89C0946
:105870002046BDE8704000F0BEB90000581200207C
:105880002DE9F041174600EB800202EB8010104A30
:105890001D4602EB8004069BA170002608222946C3
:1058A000384600F027F9012801D003260DE0B5F5B0
:1058B000964F05D948F6B800B0FBF5F0401C00E063
:1058C0000220C4F8A800C4F8B0003046BDE8F0815A
:1058D000581200202DE9F843884600EB800101EBC7
:1058E00080102F491D4601EB8004164694F89C0059
:1058F00084F8CE00052000EB4500A4F8D00094F811
:105900009C001346401D00F03F0084F89C0004F109
:105910005C003F2204F19C010746009502F0F9F972
:1059200000283BD094F8CE10A0783F23C85594F8B7
:10593000CE00310A401C00F03F002218401C82F8C3
:105940005C8000F03F002218401C82F85C1000F0E0
:105950003F002118401C00F03F0081F85C602044AB
:10596000690080F85C10B4F8D02094F8CE10384666
:105970009C3403F035FB2278010AD1552178491C6B
:1059800001F03F012170C8552078401C00F03F0015
:1059900004F89C09204600F02EF90120BDE8F883A8
:1059A0005812002000EB800202EB8010084A02EB44
:1059B000800000F1140290F85430995490F854107B
:1059C000491C01F03F0180F8541000F046BA000075
:1059D0005812002000EB800101EB801010B50C493B
:1059E00001EB8004204600F02BFA012805D1204667
:1059F00000F08EF8204600F01FFA94F85B0094F84F
:105A00005A10884201D0012010BD002010BD0000B6
:105A1000581200202DE9FC410E4600EB800101EBFD
:105A200080101749904601EB80041D46002701AA0B
:105A30006946204600F042F89DF80420042A07D366
:105A40003F239DF8001004F1140003F0C9FA18B1C7
:105A500005273846BDE8FC819DF8000000F03F00B6
:105A60002044007D30709DF80400C01E28809DF801
:105A70000000401C00F03F0188F80010E9E700003A
:105A80005812002000EB800101EB801010B50A498C
:105A900001EB800494F8A30094F8A210884201D18D
:105AA000002010BD204600F0E2F90028F9D0204681
:105AB00000F03AF8012010BD5812002010B590F8FF
:105AC0005B4000F15603E35C641E04F003040444ED
:105AD00094F856400C709C4201D2191B02E0C4F1AC
